:020000040800F2
:10000000D0270020AD0100089B0F0008D10E00088A
:10001000990F0008A5040008B910000800000000AE
:10002000000000000000000000000000C10F0008F8
:10003000A7040008000000009D0F0008C50F00087D
:10004000C7010008C7010008C7010008C701000870
:10005000C7010008C7010008C7010008C701000860
:10006000C7010008C7010008C7010008C701000850
:10007000C7010008C7010008C7010008C701000840
:10008000C7010008C7010008C70100080000000000
:10009000000000000000000000000000C701000890
:1000A000C7010008C7010008C7010008C701000810
:1000B000C7010008C7010008C7010008C701000800
:1000C000C7010008C7010008C7010008C7010008F0
:1000D000C7010008C7010008C701000800000000B0
:1000E000C7010008C7010008C701000800000000A0
:1000F000000000000000000000000000C701000830
:1001000000000000C7010008C7010008C70100087F
:1001100000000000000000000000000000000000DF
:10012000C7010008C7010008C7010008C70100088F
:10013000C7010008000000000000000000000000EF
:10014000000000000000000000000000C7010008DF
:10015000C7010008C7010008C7010008C70100085F
:10016000C7010008C70100080000000000000000EF
:10017000000000000000000000000000000000007F
:1001800000000000C701000800000000000000009F
:10019000C7010008DFF810D000F072F900480047EE
:1001A00045290008AFF30080D0270020064880478B
:1001B00006480047FEE7FEE7FEE7FEE7FEE7FEE74C
:1001C000FEE7FEE7FEE7FEE77D1000089501000868
:1001D0002DE9F05F0546002092469B46884606467C
:1001E000814640241BE0284641464746224600F00F
:1001F000D9F853465A46C01A914110D311461846B1
:10020000224600F0C0F82D1A67EB01084F4622463F
:100210000120002100F0B7F817EB00094E41201E25
:10022000A4F10104DFDC484631462A464346BDE8D6
:10023000F09FD2B201E000F8012B491EFBD27047BB
:100240000022F6E710B513460A4604461946FFF7A2
:10025000F0FF204610BD2DE9FE4F81EA030404F0B3
:10026000004421F0004100944FF0000B23F00043C4
:1002700050EA01045ED052EA03045BD0C3F30A548F
:10028000C1F30A552C44A4F2F3340194A0FB0254A8
:10029000C1F3130141F48011C3F3130343F480133A
:1002A00001FB024400FB034E840A970A44EA81548E
:1002B00047EA8357A4FB076802958D0A05FB07856B
:1002C0004FEA932C04FB0C542705029D4FEA065875
:1002D00047EA1637B5EB08056EEB070C870E920E52
:1002E00047EA811742EA8312A7FB0201B6EB0B0132
:1002F00064EB00042B0D43EA0C335E1844EB1C50F6
:10030000DA465146E7FB0201C5F313044FEA0B330B
:1003100043EA14534FEA0432019C43EA0603A4F172
:100320000C040294009CCDE900B400F05AF803B02C
:10033000BDE8F08F00200146F9E70EB540F23341E9
:1003400002910021CDE900110A460B4600F049F860
:1003500003B000BDC1F30A5210B5C1F3130140F25E
:10036000FF3341F480119A4201DA002010BD40F2BF
:1003700033439A42A2F2334203DC524200F012F8B5
:1003800010BD904010BD202A04DB203A00FA02F193
:10039000002070479140C2F1200320FA03F3194373
:1003A00090407047202A04DB203A21FA02F0002115
:1003B000704721FA02F3D040C2F120029140084375
:1003C0001946704710B5141E73F1000408DA401C7A
:1003D00041F1000192185B411A4301D120F0010064
:1003E00010BD2DE9F04D92469B4611B1B1FA81F254
:1003F00002E0B0FA80F220329046FFF7C4FF0446D4
:100400000F4640EA0A0041EA0B0153465A460843A8
:1004100013D0114653EA010019D0C8F140025046EA
:10042000FFF7C0FF05460E46504659464246FFF7C5
:10043000AAFF084305D0012004E020463946BDE864
:10044000F08D0020054346EAE0762C4337430A98B6
:100450006305E40AA0EB08000022FD0A44EA4754C1
:100460000A3002D500200146E9E70105101969416B
:10047000DDE9084500196941BDE8F04DA2E700003B
:10048000064C074D06E0E06840F0010394E80700E1
:1004900098471034AC42F6D3FFF780FED432000800
:1004A000F4320008FEE77047002200F001B80000B7
:1004B00030B50E4B054601205C7A002C14D1587AD9
:1004C0001C54587A03EB800045605D7A03F1080004
:1004D0002A54587A421C5A72303008703A204870B8
:1004E0002F208870CC70002030BD0000C023002079
:1004F00070B5044600F004F90546601C02D00448BB
:100500000078044400F0FCF8401BA042FAD370BD10
:10051000200000202DE9F84FDFF8B8A100220124C7
:100520000AF1040B03254FF00F090BF1040E00BF75
:100530000B6804FA02F63340B34273D10F7907F027
:100540000307012F01D0022F16D187684FEA420816
:1005500005FA08FC27EA0C07D1F80CC00CFA08FCD5
:100560004CEA070CC0F808C04768B7430E79C6F3D9
:10057000001696403E4346600E79F643B6070DD00E
:10058000C768560005FA06FC27EA0C07D1F808C030
:100590000CFA06FC4CEA070CC0F80CC00E7906F009
:1005A0000306022E10D1D60800EB8608D8F820608A
:1005B00057074FEAD76C09FA0CF7BE430F6907FAE1
:1005C0000CF73743C8F8207006684FEA420C05FA6A
:1005D0000CF7BE430F7907F0030707FA0CF7374310
:1005E00007604E6816F4403F6DD03B4E376847F4C5
:1005F00080473760366822F0030706F4804600968D
:10060000364E07EB060CDCF8086897073F0F09FA2F
:1006100007F826EA0806DFF8C880404503D14FF006
:1006200000081EE04FE0DFF8BC80404502D14FF0EB
:10063000010816E0DFF8B080404502D14FF0020813
:100640000FE0DFF8A880404502D14FF0030808E032
:10065000DFF89C80404502D14FF0040801E04FF0E4
:10066000070808FA07F848EA0608CCF80888DAF814
:1006700000605746D1F804C09E435FEACC3C00D5E9
:100680001E433E60DBF800605F46D1F804C09E4325
:100690005FEA8C3C00D51E433E60DEF80060774682
:1006A000D1F804C09E435FEACC2C00D51E433E60C7
:1006B000084F0C373E68D1F804C09E435FEA8C2C8B
:1006C00000D51E433E60521C102AFFF431AFBDE836
:1006D000F88F0000003C01404438024000300140E7
:1006E000000002400004024000080240000C0240EA
:1006F000001002400AB1816170470904FBE7000065
:10070000014880687047000020000020024881688E
:100710000278114481607047200000200B4810B51A
:10072000016841F400710160016841F48061016079
:10073000016841F480710160032000F061F800203D
:1007400000F006F800F024F8002010BD003C024044
:1007500070B50D4D04464FF47A712878B1FBF0F076
:100760000A490968B1FBF0F000F09EFB48B9102C73
:1007700007D200222146501E00F022F800206C60B3
:1007800070BD012070BD0000200000202C00002062
:100790000A4808B5016841F480410160006800F42E
:1007A000804000900548001F016841F080510160C1
:1007B000006800F08050009008BD000044380240FE
:1007C000F0B40E4B1B680C46C3F30223C3F10705BC
:1007D000042D00D90425191D072901D2002300E0AA
:1007E000DB1E012606FA05F1491E214099409E4074
:1007F000761E16403143F0BC00F072BC0CED00E0F8
:10080000064900F0070208684FF6FF03184040EA67
:100810000220034A10430860704700000CED00E01E
:100820000000FA052DE9F0470E46050065D0DFF817
:100830001481D8F80000F7B200F00700B04207D2E8
:1008400088F80070D8F8000000F00700B04254D1DA
:1008500028683D4C810712D5400703D5206840F435
:10086000E05020602878000703D5206840F46040FD
:1008700020602068A96820F0F000084320602878F4
:10088000C0072DD0304968680839012812D00228E5
:1008900013D0032811D00968890700292DDA2168AF
:1008A00021F0030101432160FFF72AFF814641F255
:1008B000883A0EE009688903EFE709688901ECE7E7
:1008C000FFF71EFFA0EB0901514502D90320BDE847
:1008D000F0872068696800F00C00B0EB810FEFD161
:1008E000D8F80010404601F00701B14207D907705F
:1008F000006800F00700B04201D00120E7E7287847
:10090000400705D52068E96820F4E05008432060DE
:100910002878000706D52068296920F4604040EA5D
:10092000C100206000F018F82168084AC1F30311E3
:10093000515CC8400649086006480068FFF708FF98
:100940000020C4E7003C0240083802406A2E00083C
:100950002C00002024000020154810B5006810F07D
:100960000C02144813D01449042A0FD0082A0ED1BF
:100970000F4C241F2268236802F03F025B0207D558
:100980002068C0F38810A0FB010106E0084610BDF6
:100990002168C1F38811A1FB00010023FFF718FCB7
:1009A0002168C1F30141491C4900B0FBF1F010BDC1
:1009B000083802400024F40040787D012DE9F84F0A
:1009C00004006ED02078DFF84C93C007A9F104052D
:1009D0004AD009F104000168C1F38101012908D05E
:1009E0000068C0F3810002280AD1D9F80000400253
:1009F00006D52868800337D560680028E1D033E049
:100A00006068B0F5803F10D0B0F5A02F286810D0F6
:100A100020F480302860286820F4802028606068F6
:100A2000A8B1FFF76DFE06460DE0286840F480305F
:100A3000F4E740F480202860F7E700BFFFF760FE8E
:100A4000801B642873D828688003F7D50CE0FFF773
:100A500057FE064605E000BFFFF752FE801B6428E4
:100A6000F0D828688003F7D42078DFF8AC828007BC
:100A70004FF0000A3ED5A748001D016811F00C0F89
:100A800008D00068C0F3810002280BD1D9F800001B
:100A9000400207D42868800716D5E068012800D1F5
:100AA00012E033E1E068B8B10120C8F80000FFF7B8
:100AB00027FE064605E000BFFFF722FE801B022846
:100AC000C0D828688007F7D52868216920F0F80089
:100AD00040EAC10028600DE0C8F800A0FFF710FE52
:100AE000064604E0FFF70CFE801B02281FD828688A
:100AF0008007F7D42078000722D5864F87486169A0
:100B0000703771B101210160FFF7FAFD064604E07C
:100B1000FFF7F6FD801B022809D838688007F7D553
:100B20000EE0C0F800A0FFF7EBFD064605E082E00E
:100B3000FFF7E6FD801B02287DD838688007F7D4D0
:100B40002078400768D5DFF8CCB100270BF13C0BCB
:100B5000DBF80000C0000BD4DBF8001041F080513E
:100B6000CBF80010DBF80000012700F08050009067
:100B70006B4E3068C00510D4306840F4807030602F
:100B8000FFF7BEFD009005E0FFF7BAFD0099401A9F
:100B9000022850D83068C005F6D55E4EA0686C3685
:100BA00001280FD00528306810D020F001003060F7
:100BB000306820F004003060A068B8B1FFF7A0FDF5
:100BC00000900FE0306840F00100F4E740F00400CE
:100BD0003060F7E7FFF794FD0099411A41F2883041
:100BE000814266D830688007F4D50EE0FFF788FDB3
:100BF000009007E0FFF784FD0099411A41F2883028
:100C0000814256D830688007F4D42FB1DBF8001049
:100C100021F08051CBF80010A069C8B33D49091DEF
:100C20000968C1F3810102294AD00228504607D041
:100C3000C8F8600000E03CE0FFF762FD04463BE0DE
:100C40004746C8F86000FFF75BFD064605E000BFB9
:100C5000FFF756FD801B02282BD828688001F7D4A7
:100C6000D4E907010843A16A2E4A490802EB014171
:100C7000626A41EA8211084394F82C1040EA01614B
:100C8000C9F8001001203866FFF73AFD044606E077
:100C90003EE000BFFFF734FD001B022809D828689A
:100CA0008001F7D534E000BFFFF72AFD001B0228C2
:100CB00002D90320BDE8F88F28688001F4D427E02A
:100CC0000128F7D0D9F80000E26900F480019142D0
:100CD0001CD1226A00F03F01914217D147F6C07142
:100CE000626A0140B1EB821F10D1A26A4FF0FF335C
:100CF00000F4403103EB5202B1EB024F06D194F8FD
:100D00002C1000F07060B0EB016F01D00120D1E732
:100D10000020CFE70438024000004742800E4742DF
:100D2000007000400000FFFF7047704770B504007E
:100D300009D0606A002540B125616561A56294F81B
:100D4000510040B120E0012070BD6068B0F5827FA5
:100D5000F4D0E561F2E784F850502D48A0652D48A5
:100D6000E0652D4820662D4860662D48A0662D4818
:100D7000E0662D4820672D486067A06F08B92C48B1
:100D8000A067014620468847022084F85100206869
:100D9000016821F040010160A088218900F482707F
:100DA00001F404410843A18901F400610843217C56
:100DB00001F002010843217D01F001010843218B6C
:100DC00001F400710843217F01F03801084394F8D1
:100DD000201001F080010843218D01F400510843E7
:100DE00021680860A069042101EA104094F82410E9
:100DF00001F010010843216848602068C16921F4AE
:100E00000061C1616565012084F85100002070BD5A
:100E1000A10E00089D0E0008A50E0008A30E0008F4
:100E20009F0E0008A70E00082B0D0008290D0008D2
:100E3000350E000810B586B0044614216846FFF749
:100E4000FFF913492068884220D112480021026826
:100E500042F480520260006800F4805005900D4812
:100E60001438026842F001020260006800F00100DC
:100E70000590E02000900220CDE9010103200390BD
:100E80000520049069460448FFF744FB06B010BDF6
:100E90000030014044380240000002407047704773
:100EA000704770477047704710B5401EB0F1807FA3
:100EB00001D3012010BD4FF0E02460610F216017C5
:100EC00000F00EF90020A06107202061002010BD75
:100ED000FEE7000010B504490448FFF7E5FA0249AF
:100EE000491E087010BD00001A0000203C000020C0
:100EF00030B587B014216846FFF7A2F90D480024E9
:100F0000016841F00101016000680B4D00F0010033
:100F10000590224610212846FFF7ECFB1020009098
:100F20000120CDE90104694628460394FFF7F2FA4F
:100F300007B030BD3038024000000240104810B504
:100F40000E4901604FF48271416000218160C160EF
:100F50004FF400720161C0E90512C1610162416292
:100F600081620A21C162FFF7E1FE002805D0BDE8D9
:100F70001040362103A000F0A0B810BD00300140A1
:100F8000202100202E2E2F436F72652F5372632F66
:100F90007370692E63000000FEE7FEE770470000F3
:100FA0000549088808B1401E0880044908880028BF
:100FB00001D0401E08807047040000200600002079
:100FC00070470000074810B50178491C017001788E
:100FD0000A2903D300210170FFF7E2FFBDE81040AA
:100FE000FFF794BB1800002070B592B0302168461E
:100FF000FFF726F914210CA8FFF722F91D48002459
:10100000016841F080510160006800F0805011904B
:101010001948016821F4404141F400410160006831
:101020000F2600F4404011900120039010200490FE
:101030004FF48770CDE90860022504200B900095DD
:10104000CDE906540A906846FFF7B8FC08B172B6BD
:10105000FEE74FF48050CDE90E40CDE90C6502214A
:101060000CA81094FFF7DEFB002801D072B6FEE753
:1010700012B070BD40380240007000400248016864
:1010800041F470010160704788ED00E002480121E1
:101090000170007870470000380000200120704780
:1010A000002070470248012101700078704700005D
:1010B0003800002000207047FEE772B6FEE700000F
:1010C0000FB4054B10B503A9044A029800F027F8A5
:1010D00010BC5DF814FB0000C3260008500000207F
:1010E0000907090E002804DB00F1E02080F8001455
:1010F000704700F00F0000F1E02080F8141D7047E9
:1011000002E008C8121F08C1002AFAD170477047D0
:10111000002001E001C1121F002AFBD170472DE918
:10112000F84F9946924688460546002706E025284E
:101130000AD051464A4690476D1C7F1C28780028EB
:10114000F5D13846BDE8F88F002315F8011F184681
:101150002E2915D115F8011F04232A290DD06FF06F
:101160002F022978A1F13004092C09D800EB800066
:1011700002EB400008446D1CF3E758F8040B6D1CAB
:101180002A78002ADDD0632A07D0732A0FD01046B0
:1011900051464A4690477F1C2AE018F8042B8DF8E8
:1011A000002000218DF801106E46012103E058F85F
:1011B000046B4FF0FF315A074FF0000401D409E0EF
:1011C000641C84420BDA8C42FADB325D002AF7D1D0
:1011D00005E0641C8C42FCDB305D0028F9D127441B
:1011E00004E016F8010B51464A469047641EF8D2B7
:1011F0006D1CA3E710B504460020E070401E60633C
:10120000204601F060FC08B1042010BD04F2362035
:1012100001F092FBA0F52A41553901D0032010BD01
:1012200094F83800E92805D0EB2814D194F83A0056
:10123000902810D104F16E0001F073FB0749B1EB67
:10124000002F06D004F18A0001F06BFB04498842AC
:1012500001D1002010BD022010BD00000046415405
:101260004641543300E0401C02780AB18A42FAD168
:10127000D0B27047F0B50022144D134605EB0214AE
:1012800026685EB10768BE4209D166688768BE42BB
:1012900005D1A4684669B44204D000E00123521C81
:1012A000022AEBD3022A01D069B904E04BB9022922
:1012B00007D01220F0BD05EB02108089B0F5807FC9
:1012C00001D00020F0BD1020F0BD0000A0210020C2
:1012D00030B50021054B0C4603EB01121568854221
:1012E00000D11460491C0229F6D330BDA021002092
:1012F0000268C06A938952895343B1FBF3F1001D20
:1013000004C81AB1914203D3891AF8E70020704744
:10131000006808447047C269891E921E8A4201D83B
:1013200000207047026B408901FB002070470000DD
:101330002DE9F05F82460C4601F11A0001F0FCFA3B
:1013400078BB2078012700F03F00401E00EB8001B1
:10135000DFF8589001EBC00500264FF6FF7B00BF79
:1013600019F80600204401F0E7FA80466FB1FF2D1E
:1013700017D200F0E1FF07463AF815006D1C00F0A7
:10138000DBFF87420DD1474601E0D84509D1761CE5
:101390000D2EE5D32078400606D52FB13AF815007A
:1013A00010B10020BDE8F09F0120FBE7FA2E0008F5
:1013B0002DE9F04105680F00804606D001F0CAF91A
:1013C000022809D20120BDE8F0816E6916B1E869F2
:1013D000B04207D8012605E0411CF4D0E9698142FA
:1013E000F1D83E463446E869641CA04202D8022483
:1013F000022E0AD32146404601F0ACF938B101284B
:10140000E1D0411CDFD0B442EDD10020DBE74FF04A
:10141000FF3632462146284601F06EFB30B957B1FF
:1014200022463946284601F067FB20B101280FD03B
:1014300001242046C7E76C61D5E90601891E884270
:1014400001D8401EA861287940F001002871F0E71A
:101450003446EEE72DE9F84F824600680E68002416
:10146000076988462546705D6D1C20281AD32F28F1
:1014700013D05C2811D0FF2C39D2012100F040FF9D
:101480005FEA000933D0B9F1800F12D201466DA096
:10149000FFF7E8FE58BB0CE06D1C715D2F29FBD0F7
:1014A0005C29F9D07219C8F80020202805D204253B
:1014B0000FE027F81490641CD5E7002509E000BF71
:1014C00007EB440030F8020C202801D02E2802D16E
:1014D000641E002CF4D1002027F814003CB10B222C
:1014E00020210AF1240001F0E7FA002603E006209B
:1014F000BDE8F88F761C37F816002028FAD02E2881
:10150000F8D01EB145F0030500E0641E2CB107EBD6
:10151000440030F8020C2E28F7D14FF000094FF0AC
:10152000080BCDF8009000BF37F8160006F1010651
:101530005FEA000824D0B8F1200F04D0B8F12E0FD4
:1015400004D1A64202D045F00305EDE700985845C6
:1015500001D2A64219D1BBF10B0F0FD0A64201D088
:1015600045F003050CD84FF0080000904FEA896061
:1015700026464FF00B0B4FEA1069D5E745F00305FF
:101580009AF82400E52838D03AE04046B8F1800FB8
:1015900010D3002100F0B4FE5FEA000805D02C490A
:1015A00001EB080010F8800C804645F00205B8F108
:1015B000000F04D0014627A0FFF754FE20B14FF0E2
:1015C0005F0845F003050FE0A8F14100192802D893
:1015D00049F0020908E0A8F16100192804D8413057
:1015E00049F001091FFA80F8009A0AEB020181F81C
:1015F00024800098401C009096E705218AF824106A
:10160000BBF1080F03D14FEA89604FEA1069C9F3B3
:101610008100032803D06FEA0901890701D145F051
:101620000205A90709D409F00301012901D145F0F8
:101630001005012801D145F008058AF82F50002037
:1016400056E70000222A3A3C3E3F7C7F0000000023
:101650007A2E00082B2C3B3D5B5D0000401E0228CB
:1016600012D20A4901EB00118889B0F5807F05D0BC
:1016700008B1401E80B2888110B103E00020FAE773
:10168000002008600020704702207047A021002041
:101690002DE9F04704460021D0F8009000F0D4F97D
:1016A00000285BD1FF25471EA84627634846E1690D
:1016B00001F009FA060050D1216A087850B1CA7ABF
:1016C000E52802F03F02A2713FD0130704D50F2A8C
:1016D0003BD105E0042640E00F2A01D0E5B120E02F
:1016E00094F82F20520632D4420606D591F80D8088
:1016F00000F0BF00626905462263A84209D14A7B17
:10170000424506D1D9F81000FFF712FE08B16D1E50
:1017100000E0FF25EDB21AE0084601F011FB40455C
:101720001BD094F82F00C0070FD1D4F8201004F17B
:1017300024000B2211F8013B10F8015B5B1B521EC9
:1017400002D0002BF6D000E03BB1FF25276300213B
:10175000204600F005F80600A8D03046BDE8F08726
:101760002DE9F047054647690468C0698946203776
:1017700010B1B7F5001F02D30420BDE8F087A1899E
:10178000B7FBF1F201FB127100295FD1401CE86147
:10179000A9694FF0000819B3A0896289B7FBF0F07E
:1017A000521E104252D1284600F0D4FF06460128AE
:1017B0001FD9701C36D0E069B04241D8B9F1000F92
:1017C00012D02846A969FFF7F3FD06000FD0012EBD
:1017D0000FD0701C26D0204601F004FB10BB0AE09D
:1017E0002089B0EB571F31D8C5F81C80C4E707200B
:1017F000C3E70220C1E7A289002104F1380001F00B
:101800005BF94FF0000831462046FFF784FD4FF0AA
:10181000010960630DE000BF84F80390204601F0E9
:10182000E1FA08B10120A8E7606B08F10108401C4B
:10183000606361894145EFD8616BA1EB080060638B
:1018400031462046AE61FFF766FDE8616F61A08911
:10185000B7FBF0F100FB1170204438302862002003
:101860008BE700002DE9F04F0446D0F8009090F887
:101870002F0089B010F0A00F03D0062009B0BDE8FA
:10188000F08F0025D9F8100000E06D1C30F815101D
:101890000029FAD104F124010C226846039101F0D9
:1018A00001F99DF80B00C00719D0402084F82F00E3
:1018B000012633466946D9F81020039800F00AFF44
:1018C0002046FFF7E5FE10B9761C642EF1D3642E96
:1018D0000FD00428D2D19DF80B0084F82F009DF87A
:1018E0000B00800707D50D200C35B5FBF0F56D1CFE
:1018F00002E00720C2E7012500212046276800F00A
:10190000A3F888B900263846E16901F0DCF858B937
:10191000206A0078E5280AD048B100260121204637
:10192000FFF71EFF0028EED0042812D012E0761C2C
:101930002846AE42F2D1451E059567D061696842DE
:1019400001EB4011204600F07FF85FEA000803D069
:1019500076E00720804673E0039801F0F1F94FF636
:10196000FF7B07904846E16901F0ADF85FEA0008A7
:1019700066D1D9F8100006900598D4F82080C0B23E
:101980000490079988F80D100F2188F80B1000219A
:1019900088F80C1008F11A0001F0CEF90498DFF86D
:1019A000A4A0401E00EB800101EBC006002701E06F
:1019B0005D4503D0069830F81650761C1AF80710CB
:1019C00001EB0800294601F0B7F905B95D467F1C17
:1019D0000D2FEDD35D4505D0069830F8160008B1FF
:1019E000049803E0049840F04000049088F8000058
:1019F000012189F8031000212046FFF7B1FE5FEABC
:101A000000081DD10598401E0590ABD14846E169FC
:101A100001F059F85FEA000812D120220021206A63
:101A200001F04AF80B22206A039901F03BF894F880
:101A30002F00216A00F018000873012089F80300C4
:101A400040461BE7FA2E00082DE9F04104680F46D6
:101A50000646B1F5001F3CD2F8063AD17761B56869
:101A600025B92078032806D3E56A25B16089A189C4
:101A700000FB01F812E02089B0EB571F29D9E06A7A
:101A800012E0304600F066FE0546401C1FD0022DD5
:101A90001FD3E069A8421CD9A7EB08074745294690
:101AA000EFD22046FFF737FCC6E9065088B1A1897E
:101AB000B7FBF1F10844F061A089B7FBF0F100FB3E
:101AC00011702044383030620020BDE8F0810120E0
:101AD000FBE70220F9E70000084910B50B5C002283
:101AE00053B901220A540A1801EB8000127A4068A7
:101AF0000168104688470246104610BDC0230020EA
:101B000030B4054C231804EB80001B7A406804694C
:101B10001846A44630BC6047C023002030B4054DB1
:101B20002C1805EB8000247A406885682046AC4676
:101B300030BC6047C0230020044A111802EB80002B
:101B4000097A40684268084610470000C023002018
:101B500030B4054D2C1805EB8000247A4068C56828
:101B60002046AC4630BC6047C023002038B5044650
:101B700000F0A6FA00280CD16946204601F05BF976
:101B8000002806D12069FFF769FD002801D1002156
:101B9000216038BD2DE9F74787B014468A460022F8
:101BA000694607A800F008FC5FEA000958D10098D0
:101BB00020600098D0E90617BA1E914202D8CAF8F0
:101BC00000104DE001784FF00008012901D0866A2D
:101BD00019E002240190214601A800F0BBFD411C40
:101BE00003D0012803D028B106E0012000E0022044
:101BF00081462CE008F101080098641CC069844209
:101C0000E9D324E05DB93146761C009800F05BFF13
:101C10005FEA00091BD1009800F13804858900981B
:101C200000780228204604D000F07BFE000108D096
:101C300009E000F081FE08B908F10108A41CAD1EFE
:101C400003E008F10108241D2D1F7F1EDAD1CAF818
:101C500000800098C0F81880017941F001010171FD
:101C60000AB04846BDE8F0872DE9FC4100259046C2
:101C7000074604464E1E11E001AB0122694640466C
:101C800000F063F9019801280AD19DF800000D28A1
:101C900004D06D1C04F8010B0A2801D0B542EBDB1F
:101CA0000020207015B13846BDE8FC810020FBE71C
:101CB0002DE9F74181B0904602980090684600F007
:101CC000BFFD040003D50B2004B0BDE8F0810D4E2C
:101CD000002756F824501DB12846FFF7F9FA2F7057
:101CE0000198002800D0077046F8240002D0B8F10F
:101CF000010F01D00020E7E7002201A902A800F0AF
:101D00005BFBE1E7340000202DE9F74394B00500C8
:101D10000BD002F03F063246694615A800F04CFB96
:101D200004004FF0000804D0F3E0092017B0BDE82C
:101D3000F0830098049004A8159900F085FC040035
:101D40000ED19DF83F00000601D5062408E070087A
:101D500001D0012100E0002104A8FFF78BFA04461E
:101D600016F01C0F5DD04FF00109C4B1042C10D146
:101D700000206B4902E0401C022804D201EB001253
:101D80001268002AF7D1022807D004A8FFF76AFDDD
:101D9000044646F008065CB1BBE01224B9E09DF8A9
:101DA000160010F0110F47D1700701D50824B0E0DC
:101DB000300747D500F042FD07460C9839460E30F3
:101DC00000F0B2FF0C983946163000F0ADFF0C98C9
:101DD0002021C1720C99009800F090FD0746002266
:101DE0000C99009800F08CFF0C9800211C3000F03A
:101DF0009BFF009981F8039017B3D1F8349000222B
:101E0000394604A800F042FF040009D14946009871
:101E100000F059FE04000098A7F1010747610DD0BA
:101E200077E0ECBB9DF81600C10601D5042470E0F4
:101E3000B10703D5C00701D007246AE0300701D5F8
:101E400046F040060098406B68620C98A8627008E3
:101E500001D0012100E0002104A800F00FFD28615D
:101E6000C0B30C99009800F049FDA8600C981C3094
:101E700000F057FDC5F82C80E860009929600099B2
:101E800005F130004FF48052C988A9802E7585F87D
:101E90001580C5F8208000218146C5F8188000E033
:101EA00037E000F009FEB00635D5EE689EB3AE61AE
:101EB0000098A9684789808947430FE0284600F0C9
:101EC00049FC0146012800D80224481C03D0F61B17
:101ED00024B105E021E00124F61B01E0BE42EDD86B
:101EE000E961B4B900988289B6FBF2F302FB136290
:101EF0008AB1FFF710FA80B1009901238A89B6FBF5
:101F0000F2F202442A6248784946FFF707FE10B110
:101F10000124C5F80080204608E70224F9E7000004
:101F2000A021002010B594B004460020CDE9001097
:101F3000029002E0641C00F071FE217868460029DE
:101F4000F8D100F08EFE14B010BD2DE9F04F884698
:101F500089B00021196099461546044604A900F08D
:101F60006AFF002812D1607D00280FD1207DC007B4
:101F70000BD0A169E0680127401A4FF0020A04F172
:101F8000300B854200D9054695E0072009B0BDE831
:101F9000F08F049BA1699889B1FBF0F200FB12124B
:101FA000002A69D1B1FBF0F65889401E064011D1D4
:101FB00029B1E06A28B12046FFF79AF905E0A06848
:101FC00003E02046E16900F0C5FB02281DD3411C57
:101FD0004DD0E061E1690498FFF79DF9A8B1304464
:101FE000009004988189B5FBF1F1059131B3721825
:101FF00041898A4201D9891B059140784146059B58
:10200000009AFFF78BFD90BB03E084F815A0022037
:10201000BCE7207D00060CD5216A0098081A0599B6
:10202000884206D204998A89594600FB028000F052
:1020300039FD049886890598464332E0226A009962
:102040008A4217D0217D090609D5407801235946D7
:10205000FFF77EFD58B9207D00F07F0020750498C1
:10206000012359464078009AFFF758FD10B1677573
:1020700001208BE7009820620498A1698089B1FB58
:10208000F0F200FB1212861AAE4200D92E46B1FBC6
:10209000F0F200FB1210011932464046303100F0D8
:1020A00001FDA069B0443044A061D9F80000811955
:1020B000AD1BC9F80010002D7FF46BAF002065E761
:1020C000F8B50446694600F0B6FE00280ED1217D21
:1020D0004A060BD508060ED50098226A01234078DF
:1020E00004F13001FFF734FD08B10120F8BD207D77
:1020F00000F07F00207500F0A1FB0646616A0098A1
:1021000000F0E1FC0028F1D1A56A2946E87A40F008
:102110002000E872A268206800F0F2FD05F11C00C2
:10212000E16800F001FE314605F1160000F0FCFD0B
:10213000002105F1120000F0FFFD00980121C1709F
:1021400000F00CFE217D01F0BF012175F8BD2DE9E5
:10215000F04F884689B0002119609946154604461B
:1021600004A900F068FE002806D1607D002803D194
:10217000207D800703D4072009B0BDE8F08FA06957
:10218000012742194FF0020A04F1300B824200D2BB
:10219000C543ACE00498A1698289B1FBF2F302FB6C
:1021A0001313002B79D1B1FBF2F64089401E064093
:1021B00018D129B1E06A38B12046FFF799F807E055
:1021C000A06838B9002100E0E1692046FFF7F0F887
:1021D00000287ED001282FD0411C58D0E061A16892
:1021E00001B9A060207D00060BD50498226A012366
:1021F00040785946FFF7ACFCC0BB207D00F07F0063
:102200002075E1690498FFF786F8A8B13044009082
:1022100004988189B5FBF1F1029141B372184189AB
:102220008A4201D9891B029140784146029B009A5B
:10223000FFF78EFCD0B903E084F815A002209BE7DD
:10224000216A0098081A029988420AD204998A8958
:1022500000FB0281584600F025FC207D00F07F0045
:10226000207504988689029846432FE00FE0FFE727
:10227000226A00998A420ED0E268A16991420AD28C
:10228000407801235946009AFFF748FC18B167755A
:10229000012071E701E0009820620498A16980891B
:1022A000B1FBF0F200FB1212861AAE4200D92E46A4
:1022B000B1FBF0F200FB12102044324641463030B0
:1022C00000F0F0FB207D40F080002075B044A06954
:1022D00000E00FE03044A061E168884200D8084681
:1022E000E060D9F800008119AD1BC9F80010002D7D
:1022F0007FF450AF207D40F04000207500203BE788
:10230000802804D30B4A51B1FF2801D9002070471F
:1023100002EB4000A0F58050B0F8000F704732F893
:102320001130834203D0491C89B28029F7D3803110
:10233000C8B27047242F000830B5B0F5805F01D2D5
:102340001B4900E01B4931F8022B002A15D09042AE
:1023500013D331F8024B230AE5B252FA84F48442D3
:1023600021D9092B09D2DFE803F005090E11131555
:1023700017191B00801A31F8100030BD811A01F0C6
:102380000101401A00E0103880B230BD2038FBE770
:102390003038F9E71A38F7E70830F5E75038F3E74F
:1023A000A0F5E350F0E7002BCDD101EB4501CAE7E2
:1023B00024300008163200082DE9FF41002790461E
:1023C0000E460F6000F03CFA050003D50B2004B068
:1023D000BDE8F081984850F825409CB134602078E1
:1023E00008F0FE0620B16078FFF7A6FBC1070BD00E
:1023F0002770E8B2B8466070FFF76EFBC10708D0DF
:102400000320E4E70C20E2E70EB1400704D40020EB
:10241000DDE71EB1400701D50A20D8E7607804F156
:102420000C020221FFF76CFBF0BBA089A0F5007144
:10243000B1F5606F3FD8411E08423CD100263146BD
:102440002046FEF7D7FE022822D100254FEA0D07CD
:1024500004EB051090F8FA1100F5FB7019B1083083
:1024600000F05FFA00E0002047F825006D1C042D05
:10247000EED3002557F8256036B131462046FEF7E9
:10248000B9FE022801D203E003206D1C042DF1D314
:10249000042810D0022878D204F1430000F04CFA4E
:1024A000A189884271D100E005E004F14E0000F0FE
:1024B00043FA10B105E0012089E704F15C0000F067
:1024C00030FA206294F84850A570012D01D0022DF9
:1024D0005BD1454394F845006081E8B3411E084252
:1024E00053D104F1490000F027FA2081A18949095C
:1024F000B0FBF1F201FB120070BB04F14B0000F0E5
:102500001BFA070004D104F1580000F00AFA07464C
:1025100004F1460000F010FA010036D0A0892389AA
:102520004009B3FBF0F04A19024497422DD3B81A80
:102530006789B0FBF7F078B103274FF6F57C60456B
:1025400000D8022740F6F57C604500D801273244C8
:10255000801C3144226300E017E0E061C4E90961B6
:10256000032F14D08BB12944E162022F20D000F058
:10257000010100EB400001EB5000A189401E08441E
:10258000B0FBF1F0216A884214D90D201FE704F155
:10259000620000F0D1F90028F7D120890028F4D199
:1025A00004F1640000F0BDF9E062E0698000E4E756
:1025B0004000E2E74FF0FF30A061606180202071B1
:1025C000032F2CD104F1680000F0B6F9012826D1C0
:1025D000711C204600F077FA08BB84F8048004F2EE
:1025E000362000F0A9F9A0F52A41553917D104F198
:1025F000380000F096F91149884210D104F50770AF
:1026000000F08FF90E49884209D104F5087000F0F6
:1026100088F9A06104F5097000F083F9606106484B
:102620002770001F0188491C0180E1800548206156
:102630002046FEF74DFEEAE634000020525261418A
:1026400072724161C021002073B50446056801988B
:1026500001E0401C019001782F29FAD05C29F8D0C4
:102660000021A16001980078202806D2802084F8FB
:102670002F002046FFF7E8F97CBD01A92046FEF7B0
:10268000E9FE0028F8D12046FFF702F894F82F1051
:1026900028B10428F0D14907EED405207CBD4907B4
:1026A000FCD4A079C006F8D5A9896069B0FBF1F225
:1026B00001FB120041192846383100F01FF9A060D3
:1026C000DBE738B504468DF8000069460320ABBE51
:1026D000204638BD7CB516461C4605460B2200F048
:1026E000E1F9052C11D91A4A0CE00021B61C234649
:1026F000044663F35F044008E30300D55440491CDB
:102700001029F4D330880028EFD107214FEA0D02B9
:1027100004F00F003030392800D9C01D5054491E34
:102720002409F5D17E205054002000E0401C88424E
:1027300002D22B5C202BF9D1082902D2535C491C10
:1027400000E020232B54401C0828F5D37CBD00005A
:10275000211001002DE9F04104680D4602290BD338
:10276000E069A84208D920784FF0FF36012807D049
:10277000022834D0032849D001263046BDE8F08134
:10278000A08905EB5507B7FBF0F0A16A014420468C
:1027900000F099F90028F0D1A089B7FBF0F100FB17
:1027A00011717F1CB7FBF0F0214491F83880A16AC9
:1027B0000144204600F087F90028DED1A089B7FB4C
:1027C000F0F100FB1170204490F8381048EA012025
:1027D000E90701D00609D0E7C0F30B06CDE7A089D1
:1027E000A16A4008B5FBF0F00144204600F06BF907
:1027F0000028C2D1A1896800B0FBF1F201FB1200F0
:102800002044383000F098F80646B6E7A089A16A5F
:102810008008B5FBF0F00144204600F054F9002890
:10282000ABD1A189A800B0FBF1F201FB120020445A
:10283000383000F076F820F070469EE700207047B0
:1028400010B504464FF0FF302268002A13D011461D
:1028500000E0491C0B78202B0ED33A2BF9D112F84B
:10286000013B303B0A2B06D28A4204D1002B02D115
:10287000491C1846216010BD002010BDF0B502466D
:102880001D4BD2F80050002003EB00142668AE4226
:1028900007D166689768BE4203D1A4685669B442FE
:1028A00002D0401C0228EFD3022814D1002002E0FD
:1028B000401C022804D203EB00142468002CF7D13A
:1028C00002280ED003EB00142560956865605269FC
:1028D000A2600022A281002903EB0011898902D0A5
:1028E00019B10020F0BD491C01E04FF4807103EBE9
:1028F0000012401C9181F0BDA021002070B5064659
:102900000D4601F11A0000F017F80446307803284C
:1029100005D105F1140000F00FF844EA0044204608
:1029200070BDC178827842EA01214278007842EA9B
:10293000012140EA012070474178007840EA0120F7
:10294000704700002DED028BFDF7E8FEFEF74CFB13
:10295000FEF7CEFAFEF7F2FAFEF7BCFA4FF4FA7081
:10296000FDF7C6FD002235A13548FFF7A1F908B1F2
:1029700072B6FEE7132233A13548FFF7C5F908B157
:1029800072B6FEE7334A2DA0111DFFF703F908B117
:1029900072B6FEE72F4C2168C8694D89801E6843D6
:1029A000FDF7CBFC9FED2C8B53EC182BFDF753FC64
:1029B000FDF7D0FCA060616805FB01F0FDF7BDFCF0
:1029C00053EC182BFDF747FCFDF7C4FCE06068B141
:1029D0001F4923A0FFF7A6FA1D492AA0FFF7A2FA74
:1029E0001B48FFF7C3F818B172B6FEE772B6FEE7F0
:1029F000012214A11648FFF787F940B172B6FEE72D
:102A0000254926A0FEF75CFB2548002000BF104AA0
:102A100064212148FFF728F90028F1D10C48FFF77D
:102A2000A5F808B172B6FEE7012204A10020FFF765
:102A30003FF908B172B6FEE7FEE7000000000000B3
:102A40005400002066697273742E7478740000005C
:102A50008C10002008000020000000000000E03F73
:102A600053544D3332205344204361726420492F24
:102A70004F204578616D706C6520766961205350F8
:102A8000490A0000536176652074686520776F728B
:102A90006C64212121000000BC200020257300006F
:102AA00050000020002A05D011F8013B00F8013B3E
:102AB000521EF9D1704700005FFA81F100F8011B46
:102AC000521EFBD1704770B50446406B0D46002680
:102AD000A8420FD0204600F085F906000AD16078A0
:102AE00001232A4604F13801FFF718F808B1751ED2
:102AF00001266563304670BD2DE9F0470226174672
:102B00000D46044602297DD3E069A8427AD920788F
:102B10004FF00109012804D0022840D003287AD1BF
:102B200054E0A18905EB5508B8FBF1F0A16A014416
:102B30002046FFF7C8FF06006DD1A189B8FBF1F26E
:102B400001FB12802044383008F10108E90704D065
:102B50000178FAB262F31F1100E03946017084F87F
:102B60000390A189B8FBF1F0A16A01442046FFF768
:102B7000AAFF06004FD1A189B8FBF1F201FB128038
:102B800020443830E90702D0C7F3071105E0017887
:102B9000C7F3032201F0F0011143017039E0A0896D
:102BA000A16A4008B5FBF0F001442046FFF78BFF17
:102BB000060030D1A1896800B0FBF1F201FB1200E0
:102BC0002044B9B2383000F0B7F822E0A089A16AF9
:102BD0008008B5FBF0F001442046FFF774FF0600C3
:102BE00019D1A089AD00B5FBF0F100FB11502044D4
:102BF0003830FFF796FE67F31B000146A089B5FB4E
:102C0000F0F200E007E000FB12502044383000F002
:102C10008BF884F803903046BDE8F087F8B50E468F
:102C200004460A2902D10D21FFF7F8FF6568002D3F
:102C300016DB60196D1C06733D2D0DDB6B462A46B5
:102C400004F10C012068FFF782FA0098A84201D134
:102C5000002501E04FF0FF356560A068401CA060D2
:102C6000F8BD38B542680446002A0CDB6B4604F117
:102C70000C012068FFF76BFA28B960680099884258
:102C800001D1A06838BD4FF0FF3038BD2DE9F041CB
:102C9000056813460E46074602292DD3E869B0425F
:102CA0002AD93BB14FF0FF3219462846FFF724FFDF
:102CB00000281FD131463846FFF74CFD040018D0DC
:102CC000012C19D0601C19D0002231462846FFF78C
:102CD00013FF00280ED1D5E90610821E914205D2BD
:102CE000491CA961297941F0010129712646B042A8
:102CF000E0D80020BDE8F0810220FBE70120F9E7E1
:102D000070B50C460646154691B204F11A0000F063
:102D100013F83078032806D1290C04F11400BDE81B
:102D2000704000F009B870BD0170090A4170090ACD
:102D30008170090AC17070470170090A41707047BB
:102D4000014600200B22430803EBC01011F8013BA1
:102D5000521E1844C0B2F6D17047000070B5044648
:102D600000F040F8050036D1207803282CD12079D6
:102D7000012829D104F13800A28900210646FFF775
:102D80009BFE4AF6552104F23620FFF7D5FF134982
:102D90003046FFF7C9FF124904F50770FFF7C4FF7B
:102DA00004F50870A169FFF7BFFF04F509706169B8
:102DB000FFF7BAFF626A0123521C626360783146F2
:102DC000FEF7C6FE00202071002260781146FEF753
:102DD00097FE00B10125284670BD000052526141A6
:102DE000727241612DE9F0410446C0780027F8B1C4
:102DF000656B04F13801607801232A468846FEF7A6
:102E0000A7FE08B1012713E00020E070A06A216A44
:102E1000281A88420CD2A67808E0206A01230544CB
:102E200060782A464146FEF793FE761E022EF4D2C3
:102E30003846BDE8F08170B50E4604004FF0090534
:102E40000CD0206850B1017841B1A188C28891426C
:102E500004D14078FEF770FEC00703D00020306038
:102E6000284670BD00252068F9E70000000000003A
:102E7000000001020304060708094355454141418A
:102E8000414345454549494941414592924F4F4F3C
:102E90005555594F554F9C4F9E9F41494F55A5A59C
:102EA000A6A7A8A9AAABACADAEAFB0B1B2B3B441BE
:102EB0004141B8B9BABBBCBDBEBFC0C1C2C3C4C525
:102EC0004141C8C9CACBCCCDCECFD1D1454545496A
:102ED000494949D9DADBDCDD49DF4FE14F4F4F4F3C
:102EE000E6E8E85555555959EEEFF0F1F2F3F4F5EF
:102EF000F6F7F8F9FAFBFCFDFEFF01030507090EE2
:102F000010121416181C1E000100040010004000CE
:102F1000000100020000010002000400080010008F
:102F200020000000C700FC00E900E200E400E0002F
:102F3000E500E700EA00EB00E800EF00EE00EC003F
:102F4000C400C500C900E600C600F400F600F200A7
:102F5000FB00F900FF00D600DC00F800A300D80059
:102F6000D7009201E100ED00F300FA00F100D1007A
:102F7000AA00BA00BF00AE00AC00BD00BC00A100BA
:102F8000AB00BB0091259225932502252425C10085
:102F9000C200C000A9006325512557255D25A20068
:102FA000A5001025142534252C251C2500253C259D
:102FB000E300C3005A255425692566256025502560
:102FC0006C25A400F000D000CA00CB00C80031017D
:102FD000CD00CE00CF0018250C2588258425A6001D
:102FE000CC008025D300DF00D400D200F500D5004E
:102FF000B500FE00DE00DA00DB00D900FD00DD00D8
:10300000AF00B400AD00B1001720BE00B600A700AD
:10301000F700B800B000A800B700B900B300B200D4
:10302000A025A00061001A03E0001703F8000703C1
:10303000FF00010078010001300132010601390171
:1030400010014A012E017901060180014D00430261
:103050008101820182018401840186018701870147
:1030600089018A018B018B018D018E018F019001F5
:103070009101910193019401F60196019701980144
:1030800098013D029B019C019D0120029F01A0012E
:10309000A001A201A201A401A401A601A701A70108
:1030A000A901AA01AB01AC01AC01AE01AF01AF01B6
:1030B000B101B201B301B301B501B501B701B80166
:1030C000B801BA01BB01BC01BC01BE01F701C001DE
:1030D000C101C201C301C401C501C401C701C801C6
:1030E000C701CA01CB01CA01CD011001DD010100F8
:1030F0008E01DE011201F3010300F101F401F4017C
:10310000F8012801220212013A020900652C3B0253
:103110003B023D02662C3F02400241024102460250
:103120000A015302400081018601550289018A018A
:1031300058028F015A0290015C025D025E025F023A
:1031400093016102620294016402650266026702F1
:10315000970196016A02622C6C026D026E029C015C
:10316000700271029D01730274029F017602770260
:10317000780279027A027B027C02642C7E027F0252
:10318000A60181028202A9018402850286028702C9
:10319000AE014402B101B20145028D028E028F02DE
:1031A00090029102B7017B030300FD03FE03FF03BE
:1031B000AC0304008603880389038A03B103110367
:1031C000C2030200A303A303C4030803CC03030048
:1031D0008C038E038F03D8031801F2030A00F9034E
:1031E000F303F403F503F603F703F703F903FA0314
:1031F000FA033004200350041007600422018A04FB
:103200003601C1040E01CF040100C004D004440102
:103210006105260400007D1D0100632C001E96013F
:10322000A01E5A01001F0806101F0606201F0806D0
:10323000301F0806401F0606511F0700591F521F66
:103240005B1F541F5D1F561F5F1F601F0806701F06
:103250000E00BA1FBB1FC81FC91FCA1FCB1FDA1F12
:10326000DB1FF81FF91FEA1FEB1FFA1FFB1F801F50
:103270000806901F0806A01F0806B01F0400B81F0C
:10328000B91FB21FBC1FCC1F0100C31FD01F0206F5
:10329000E01F0206E51F0100EC1FF21F0100FC1FEA
:1032A0004E2101003221702110028421010083216E
:1032B000D0241A05302C2F04602C0201672C060143
:1032C000752C0201802C6401002D260841FF1A0391
:1032D00000000000F432000800000020540000004C
:1032E0000011000848330008540000207C2700002B
:1032F00010110008010000000000000000000000A4
:1033000000000000000000000000000000000000BD
:10331000000000000100000010000000000000009C
:103320000024F40000000000000000000100000084
:103330008D100008A5100008A1100008B5100008A5
:083340009D10000800000000D0
:040000050800019559
:00000001FF
